:100000000C9416150C9447150C9447150C94471531
:100010000C9447150C9447150C9447150C944715F0
:100020000C9447150C9447150C9447150C944715E0
:100030000C9447150C9447150C9447150C944715D0
:100040000C9447150C9412890C9447150C94471581
:100050000C9447150C9447150C94EFC50C94DC7563
:100060000C9447150C9408310C9447150C944715C3
:100070000C9447150C9447150C9447150C94471590
:100080000C9447150C9447150C9447150C94471580
:100090000C9447150C9447150C9447150C94471570
:1000A0000C9447150C9447150C9447150C94471560
:1000B0000C9447150C9447150C9447150C94471550
:1000C0000C9447150C9447150C9447150C94471540
:1000D0000C9447150C9447150C9447150C94471530
:1000E0000C94471518741B740A740E7414745274AB
:1000F0001F74237429742D74317437743B743F74E6
:100100005274457449744D74F874FD7402750C751D
:1001100016758F752075287530753A7544754E754E
:100120005D7567758F7571757B758575084AD73BE9
:100130003BCE016E84BCBFFDC12F3D6C74319ABDB6
:1001400056833DDA3D00C77F11BED9E4BB4C3E91DA
:100150006BAAAABE000000803F05A84CCDB2D44EC9
:10016000B93836A9020C50B9918688083CA6AAAACB
:100170002ABE000000803F004E414E494E4954596E
:10018000494E46CDCCCC3D0AD7233C17B7D1387762
:10019000CC2B329595E6241FB14F0A000020410078
:1001A00000C84200401C4620BCBE4CCA1B0E5AAEC2
:1001B000C59D74434F4D4D554E49434154494F4E93
:1001C0000044525952554E004552524F5253004925
:1001D0004E464F004543484F0047322F4733206279
:1001E000616420706172616D65746572730A005399
:1001F0006C6565702E2E2E00205A3A200020593A48
:10020000200042656420583A2000456E64206669EB
:100210006C65206C6973740A00426567696E2066BC
:10022000696C65206C6973740A00534420707269AC
:100230006E74696E67206279746520004E6F742059
:100240005344207072696E74696E670A0046696C67
:10025000652064656C657465643A0044656C65741A
:10026000696F6E206661696C65642C2046696C65F7
:100270003A20006F70656E206661696C65642C20A1
:1002800046696C653A20002569730025696D202553
:100290006973002569682025696D2025697300252B
:1002A0006964202569682025696D2025697300250A
:1002B000697920256964202569682025696D2025D4
:1002C0006973005072696E742074696D653A20001C
:1002D00050726F7465637465642050696E0A006FB4
:1002E0006E2E0A006F66662E0A004732362044657D
:1002F000627567200045256920257300334420502E
:1003000072696E7465722072656164792E00D40121
:10031000CF01C801C101B3016F6666004445425573
:10032000473A004B494C4C45442E20004D31313367
:100330002053006F6B0048656174696E6720646FBD
:100340006E652E0020573A0045256920257300333D
:1003500044205072696E7465722072656164792EF2
:10036000003344205072696E746572204F66662EA9
:10037000002F2F20007A5F6D696E3A2000795F6D43
:10038000696E3A2000785F6D696E3A2000526570A0
:100390006F7274696E6720656E6473746F7020731A
:1003A00074617475730A004D31343520533C696EA5
:1003B0006465783E206F7574206F662072616E6789
:1003C000652028302D31290A0053657474696E67E1
:1003D0002054726176656C20416363656C6572615F
:1003E00074696F6E3A200053657474696E672052A9
:1003F00065747261637420416363656C65726174D6
:10040000696F6E3A200053657474696E672050728C
:10041000696E7420416363656C65726174696F6EA7
:100420003A200053657474696E67205072696E7467
:1004300020616E642054726176656C20416363654F
:100440006C65726174696F6E3A2000205A00205901
:1004500000580020204D61783A2000205A00205991
:1004600000580020204D696E3A20004F6E20004F4A
:10047000666600536F667420656E6473746F707384
:100480003A200000013637263FFF3C3D380EFF2B57
:10049000303A0CFFFF0B08FF0304FF1A1C18FFFF84
:1004A000084505FF42FFFFFFFFFFFF20643A0020E1
:1004B000693A0020703A0043290A0061626C656461
:1004C00020286D696E2074656D702000436F6C6428
:1004D00020657874727564657320617265200023ED
:1004E000646566696E65202044454641554C545FFD
:1004F0004B64200023646566696E65202044454690
:1005000041554C545F4B69200023646566696E65F4
:10051000202044454641554C545F4B7020005049C3
:1005200044204175746F74756E652066696E6973D9
:10053000686564212050757420746865206C61734F
:1005400074204B702C204B6920616E64204B64201A
:10055000636F6E7374616E74732066726F6D206268
:10056000656C6F7720696E746F20436F6E66696784
:1005700075726174696F6E2E680A0050494420419B
:1005800075746F74756E65206661696C6564212091
:1005900074696D656F75740A00544845524D414C3D
:1005A0002052554E4157415900546865726D616C37
:1005B0002052756E617761790048656174696E6774
:1005C000206661696C65640048656174696E6720C6
:1005D0006661696C656400504944204175746F74AC
:1005E000756E65206661696C6564212054656D7067
:1005F0006572617475726520746F6F2068696768D1
:100600000A00204B643A2000204B693A2000204B1E
:10061000703A20000A20436C61737369632050496B
:1006200044200A002054753A2000204B753A2000DF
:10063000206D61783A2000206D696E3A20002064B8
:100640003A200020626961733A2000426564204CC0
:100650006576656C696E6720004661696C6564202B
:10066000746F20656E61626C6520426564204C6524
:1006700076656C696E670A004D65736820706F69F6
:100680006E742063616E6E6F742062652072657394
:100690006F6C7665640A004D34323120696E636F89
:1006A000727265637420706172616D657465722029
:1006B00075736167650A004F6666736574732061C0
:1006C00070706C696564004572723A20546F6F20D7
:1006D0006661722100546F6F206661722066726FCE
:1006E0006D207265666572656E636520706F696EF8
:1006F000740A003A2000207A5F6D696E3A20202D3E
:100700003230207A5F6D61783A202032300A005012
:10071000726F6265205A204F6666736574004E6F73
:100720002063617365206C696768740A00416374B3
:100730006976652045787472756465723A20005553
:100740006E6B6E6F776E20636F6D6D616E643A20B5
:1007500022004D6573682056616C69646174696F2D
:100760006E2053746F707065642E00696E206D6F1B
:1007700076655F746F282920666565645F76616CB5
:10078000756520666F722058593A004C656176692C
:100790006E672047323600446F6E65205072696D77
:1007A000696E6700446F6E65205072696D696E678F
:1007B000004669786564204C656E677468205072E5
:1007C000696D652E00557365722D436F6E74726F7F
:1007D0006C6C6564205072696D65002C2065793DF4
:1007E0000029202D3E202865783D002C2073793D7E
:1007F0000020436F6E6E656374696E67207769745D
:100800006820766572746963616C206C696E65201E
:100810002873783D002C2065793D0029202D3E204D
:100820002865783D002C2073793D0020436F6E6E63
:10083000656374696E67207769746820686F726990
:100840007A6F6E74616C206C696E65202873783DD8
:10085000004C656176696E6720473236002C20793E
:10086000693D00202020446F696E672063697263D0
:100870006C652061743A202878693D003F537065AB
:1008800063696669656420582C5920636F6F7264D0
:10089000696E617465206F7574206F6620626F7574
:1008A0006E64732E0A003F285229657065617420BA
:1008B00076616C7565206E6F7420706C61757369FC
:1008C000626C653B206D75737420626520617420D5
:1008D0006C6561737420312E0A003F537065636943
:1008E00066696564206E6F7A7A6C652074656D70D8
:1008F00065726174757265206E6F7420706C6175BD
:100900007369626C652E0A003F537065636966699E
:1009100065642066696C616D656E742073697A65C3
:10092000206E6F7420706C61757369626C652E0A3D
:10093000003F537065636966696564207072696D14
:1009400065206C656E677468206E6F7420706C61D2
:10095000757369626C652E0A003F53706563696642
:10096000696564206E6F7A7A6C652073697A652098
:100970006E6F7420706C61757369626C652E0A000D
:100980003F5370656369666965642052657472617E
:100990006374696F6E204D756C7469706C696572F3
:1009A000206E6F7420706C61757369626C652E0ABD
:1009B000003F52657472616374696F6E204D756C8F
:1009C0007469706C696572206D757374206265203E
:1009D0007370656369666965642E0A003F537065CC
:1009E000636966696564206C617965722068656910
:1009F000676874206E6F7420706C61757369626CC7
:100A0000652E0A003F5370656369666965642062FC
:100A100065642074656D7065726174757265206EB1
:100A20006F7420706C61757369626C652E0A004783
:100A3000323620636F6D6D616E6420737461727401
:100A400065642E2057616974696E6720666F722035
:100A50006865617465722873292E0A007C3C3E5ECD
:100A60002B3D3F2F5B5D3B2C2A225C004572726F51
:100A7000722077726974696E6720746F20454550E3
:100A8000524F4D210A004578747275646572004DAD
:100A90006F7665205A004D6F76652059004D6F7650
:100AA000652058005072657061726500496E697406
:100AB00069616C697A6520454550524F4D00436F1E
:100AC0006E74726F6C00526573746F72652066612C
:100AD000696C73616665004C6F6164207365747442
:100AE000696E677300496E697469616C697A652023
:100AF000454550524F4D0053746F726520736574B5
:100B000074696E67730046696C616D656E74004D43
:100B10006F74696F6E0054656D7065726174757283
:100B200065004D61696E00507265686561742041B1
:100B3000425320636F6E6600507265686561742071
:100B4000504C4120636F6E66005049442D44005064
:100B500049442D44005049442D49005049442D49F1
:100B6000005049442D50005049442D50002002208F
:100B700046616374002002204661637400200220F5
:100B80004D6178002002204D6178002002204D61E7
:100B900078002002204D696E002002204D696E0011
:100BA0002002204D696E004F6666004F6E200041A6
:100BB00075746F74656D700046616E207370656545
:100BC0006420330046616E207370656564203300D5
:100BD00046616E20737065656420330046616E2047
:100BE000737065656420320046616E2073706565C0
:100BF0006420320046616E207370656564203200A7
:100C00004E6F7A7A6C65004E6F7A7A6C6500436F2E
:100C10006E74726F6C0053746F72652073657474B8
:100C2000696E6773004E6F7A7A6C65004E6F7A7AE0
:100C30006C65004E6F7A7A6C650046616E20737049
:100C40006565640046616E20737065656400466189
:100C50006E2073706565640054656D7065726174B3
:100C600075726500290A002062797465733B206300
:100C70007263200053657474696E67732053746FD8
:100C8000726564202800202863616C63756C617450
:100C9000656429210A0020213D2000454550524F1E
:100CA0004D20435243206D69736D61746368202D3C
:100CB000202873746F726564292000290A0020625D
:100CC000797465733B2063726320002073746F72C4
:100CD00065642073657474696E67732072657472DD
:100CE0006965766564202800204D61726C696E3DEF
:100CF000563437290A0028454550524F4D3D00458E
:100D00004550524F4D2076657273696F6E206D6944
:100D1000736D617463682000202844525952554E07
:100D20002900473239204175746F20426564204C98
:100D30006576656C696E670028422961636B0028DF
:100D40004629726F6E7400285229696768740028FA
:100D50004C29656674003F2856296572626F736579
:100D6000206C6576656C20697320696D706C6175A7
:100D70007369626C652028302D34292E0A00426187
:100D800064205A2076616C75650A004E6F20626996
:100D90006C696E65617220677269640A004D6573E3
:100DA0006820706F696E742063616E6E6F7420626C
:100DB00065207265736F6C7665640A0052657375A1
:100DC0006D696E67207072696E74003344205072D2
:100DD000696E7465722072656164792E00436C6976
:100DE000636B20746F20726573756D652E2E2E00F7
:100DF0004E6F206D6F76652E00205A3A0020593ACA
:100E00000020436F756E7420583A0020453A002048
:100E10005A3A0020593A00583A003A004361703A71
:100E200000454D455247454E43595F504152534549
:100E30005200434153455F4C494748545F42524931
:100E40004748544E45535300544F47474C455F4C19
:100E5000494748545300534F4654574152455F50F9
:100E60004F574552004255494C445F504552434507
:100E70004E54004C4556454C494E475F4441544101
:100E8000005A5F50524F4245004155544F4C455611
:100E9000454C005052494E545F4A4F420050524F09
:100EA0004752455353004155544F5245504F5254A9
:100EB0005F54454D5000564F4C554D455452494393
:100EC00000454550524F4D0053455249414C5F58E3
:100ED0004F4E5F584F4646004649524D5741524586
:100EE0005F4E414D453A4D61726C696E20312E3135
:100EF0002E3820284769746875622920534F55524F
:100F000043455F434F44455F55524C3A6874747093
:100F1000733A2F2F6769746875622E636F6D2F4D5A
:100F200061726C696E4669726D776172652F4D6191
:100F3000726C696E2050524F544F434F4C5F564570
:100F40005253494F4E3A312E30204D414348494E7D
:100F5000455F545950453A3344205072696E746568
:100F6000722045585452554445525F434F554E5494
:100F70003A3120555549443A6365646532613266B9
:100F80002D343161322D343734382D396231322DE0
:100F90006335356336326633363766660A000000DD
:100FA0000A0B02090C0D0E080703040100000000E3
:100FB0000000000000000000000000000000000031
:100FC00000000000000000000000121110000000EE
:100FD0000000000000000000000000000000000011
:100FE0000000000000000000000000000000000001
:100FF000000000004B494C4C45442E2000202D2081
:10100000496E76616C696420657874727564657286
:10101000206E756D62657220210A002D2D2D2D2DFB
:101020002D007C4D61726C696E7C002D2D2D2D2D57
:101030002D00687474703A2F2F6D61726C696E6642
:10104000772E6F726700687474703A2F2F6D61721B
:101050006C696E66772E6F72670020312E312E38E4
:10106000002020506C616E6E657242756666657216
:1010700042797465733A20002046726565204D659B
:101080006D6F72793A2000436F6D70696C65643AD8
:101090002041756720313020323031380A00207C01
:1010A00020417574686F723A20286E6F6E652C202F
:1010B00064656661756C7420636F6E666967290A82
:1010C00000323031372D31322D32352031323A3045
:1010D0003000204C61737420557064617465643A0B
:1010E0002000312E312E380A004D61726C696E007D
:1010F00020536F6674776172652052657365740A58
:1011000000205761746368646F672052657365746B
:101110000A002042726F776E206F757420526573DB
:1011200065740A002045787465726E616C205265A2
:101130007365740A00506F77657255700A00737496
:101140006172740A006572726F72207772697469D5
:101150006E6720746F2066696C650A00456E647363
:10116000746F707320256320256320256320256319
:1011700000205A3A0020593A0020583A00656E641F
:1011800073746F7073206869743A2000446F6E65E1
:1011900020736176696E672066696C652E0A004D62
:1011A00032390050726F62696E67206661696C65E2
:1011B000640A0050726F62696E67206661696C65CF
:1011C0006400205A3A200020593A200042656420E9
:1011D000583A2000486F6D652025732573257320CC
:1011E0006669727374002066697273740A005A002B
:1011F00059005800486F6D652000534420636172A8
:1012000064206F6B0A006F70656E526F6F7420669A
:1012100061696C65640A00766F6C756D652E696E28
:101220006974206661696C65640A00534420696EC4
:101230006974206661696C0A006175746F25692E96
:101240006700000020002300260029002C002F004A
:101250003200000100000301060109010000220024
:10126000250028002B002E00310034000201000070
:10127000050108010B010505050507050808080813
:10128000020202020A0A080804040404010101011E
:101290000101010103030303030303030407070719
:1012A0000C0C0C0C0C0C0C0C0202020206060606BE
:1012B000060606060B0B0B0B0B0B0B0B07070A0A9C
:1012C0000A0A0A0A05050504040408080102102098
:1012D000200808102040102040800201020108046C
:1012E0000201010204081020408080402010080400
:1012F0000201800402018040201008040201080459
:10130000020101020408102040800102040810209C
:1013100040801008040880102040044080102040C5
:10132000048000002100240027002A002D00300046
:10133000330001010000040107010A0145737465CF
:1013400070732F6D6D004573746570732F6D6D0034
:101350005A73746570732F6D6D005A737465707372
:101360002F6D6D005973746570732F6D6D00597317
:10137000746570732F6D6D005873746570732F6D85
:101380006D005873746570732F6D6D004D6F7469C7
:101390006F6E0053746570732F6D6D004A65726BCC
:1013A00000416363656C65726174696F6E005665B8
:1013B0006C6F63697479005A204F666673657400B8
:1013C0005A204F666673657400436F6E74726F6C5B
:1013D0000046696C2E204469612E0046696C2E20FF
:1013E0004469612E004F6666004F6E2000452069FB
:1013F0006E206D6D3300436F6E74726F6C004361CD
:101400006E6E6F7420656E746572207375626469A8
:10141000723A2000052E2E004D61696E00486172FF
:1014200064636F6465642044656661756C74205301
:10143000657474696E6773204C6F616465640A003B
:10144000B80B0000B80B000064000000102700007B
:1014500000009643000096430000A0400000C841F1
:101460000000C8420000C8420000C8430000BA4261
:1014700020590020580053656E736F726C6573734A
:1014800020686F6D696E67207468726573686F6C31
:10149000643A0A00205920002058200053746570D7
:1014A0007065722064726976657220637572726508
:1014B0006E743A0A0020204D383531205A005A2DDA
:1014C00050726F6265204F666673657420286D6D7B
:1014D000293A0A0020440020490020204D333031B1
:1014E0002050005049442073657474696E67733AE4
:1014F0000A0020460020420020480020204D3134C0
:10150000352053004D6174657269616C20686561B6
:1015100074757020706172616D65746572733A0ADA
:101520000020204D3432302053004175746F20422A
:101530006564204C6576656C696E673A0A00205ACE
:101540000020590020204D323036205800486F6D61
:1015500065206F66667365743A0A00204500205A5C
:101560000020590020580020420020540020204D27
:10157000323035205300416476616E6365643A20F1
:10158000533C6D696E5F66656564726174653E208B
:10159000543C6D696E5F74726176656C5F666565FB
:1015A00064726174653E20423C6D696E5F7365676D
:1015B0006D656E745F74696D655F75733E20583C30
:1015C0006D61785F78795F6A65726B3E205A3C6D19
:1015D00061785F7A5F6A65726B3E20453C6D617829
:1015E0005F655F6A65726B3E0A00205400205200FE
:1015F00020204D323034205000416363656C6572A9
:101600006174696F6E2028756E6974732F73322947
:101610003A20503C7072696E745F616363656C3E22
:1016200020523C726574726163745F616363656CC0
:101630003E20543C74726176656C5F616363656CD7
:101640003E0A00204500205A0020590020204D323B
:1016500030312058004D6178696D756D20416363AC
:10166000656C65726174696F6E2028756E6974733C
:101670002F7332293A0A00204500205A00205900D1
:1016800020204D3230332058004D6178696D756DE2
:10169000206665656472617465732028756E69746F
:1016A000732F73293A0A00204500205A0020590060
:1016B00020204D39322058005374657073207065B6
:1016C0007220756E69743A0A0020204D3230302045
:1016D00044300A0020204D3230302044002044693C
:1016E0007361626C65640A0046696C616D656E7455
:1016F0002073657474696E67733A0020204D31342D
:10170000392043203B20556E69747320696E204355
:10171000656C736975730A002020473231202020E0
:10172000203B20556E69747320696E206D6D0A0030
:1017300024F4D43050C38E20C2A24017828B701183
:10174000127A910D816CD90AA861E108C758660721
:10175000615143061E4B5D05C145A7041A411104A2
:10176000093D9803713931034036DB02653391023C
:10177000D4305402802E1D02632CEE01752AC5015F
:10178000B028A001102781018F2564012B244B0173
:10179000E0223401AC211F018D200D01801FFC00CF
:1017A000841EED00971DDF00B81CD200E61BC600AA
:1017B000201BBC00641AB200B219A8000A19A000CC
:1017C0006A189900D117910040178B00B516840054
:1017D00031167E00B31579003A157300C7146F00F7
:1017E00058146A00EE1366008813630025135E0028
:1017F000C7125B006C12570015125400C111510042
:1018000070114F0021114B00D61049008D10470078
:101810004610440002104200C00F4000800F3E00FE
:10182000420F3C00060F3B00CB0E3800930E3700F2
:101830005C0E3500270E3400F30D3200C10D31006F
:10184000900D3000600D2E00320D2D00050D2C0086
:10185000D90C2B00AE0C2900850C29005C0C27004C
:10186000350C27000E0C2600E80B2400C40B2400C6
:10187000A00B23007D0B23005A0B2100390B210004
:10188000180B2000F80A1F00D90A1E00BB0A1E0010
:101890009D0A1D00800A1D00630A1C00470A1B00E8
:1018A0002C0A1B00110A1A00F7091A00DD09190099
:1018B000C4091900AB091900920917007B09180027
:1018C000630917004C091600360916002009160096
:1018D0000A091500F5081500E0081400CC081400EA
:1018E000B8081400A4081400900813007D08120022
:1018F0006B08130058081200460812003408110043
:10190000230811001208110001081100F00710004F
:10191000E0071000D0071000C0071000B0070F004C
:10192000A107100091070E0083070F0074070F0036
:1019300065070E0057070E0049070E003B070D0014
:101940002E070E0020070D0013070D0006070D00DF
:10195000F9060C00ED060D00E0060C00D4060C00A4
:10196000C8060C00BC060C00B0060C00A4060B0058
:1019700099060C008D060B0082060B0077060B0003
:101980006C060B0061060A0057060B004C060A00A5
:1019900042060A0038060A002E060A0024060A003B
:1019A0001A060A001006090007060A00FD050900CC
:1019B000F4050900EB050900E2050900D905090055
:1019C000D0050900C7050900BE050900B5050800D6
:1019D000AD050800A50509009C0508009405080050
:1019E0008C050800840508007C05080074050800C3
:1019F0006C050700650508005D0507005605080031
:101A00004E05070047050700400508003805070098
:101A1000310507002A050700230507001C050600FD
:101A2000160507000F050700080506000205070058
:101A3000FB040600F5040700EE040600E8040600B7
:101A4000E2040700DB040600D5040600CF0406000C
:101A5000C9040600C3040600BD040600B70406005E
:101A6000B1040500AC040600A6040600A0040500AD
:101A70009B04060095040500900406008A040500F6
:101A800085040500800406007A040500750405003D
:101A9000700405006B040500660405006104050080
:101AA0005C04050057040500520405004D040500C0
:101AB00048040500430405003E0404003A04050000
:101AC00035040500300404002C040500270404003C
:101AD000230405001E0404001A0404001604050073
:101AE000110404000D0404000904050004040400AA
:101AF00000040400FC030400F8030400F4030400E1
:101B0000F0030400EC030400E8030400E403040011
:101B1000E0030400DC030400D8030400D403040041
:101B2000D0030400CC030400C8030300C503030072
:101B300024F404D9201BC40C5C0E9804C4095F0271
:101B400065077101F405F900FB04B3004804870040
:101B5000C10369005803550003034500BE023A0063
:101B60008402310053022A002902250004022000C9
:101B7000E4011C00C8011900AF011700980114000E
:101B800084011300710110006101100051010E0069
:101B900043010D0036010B002B010B0020010B004F
:101BA000150109000C01090003010800FB000800F1
:101BB000F3000800EB000700E4000600DE0006006A
:101BC000D8000600D2000600CC000500C7000500C2
:101BD000C2000500BD000400B9000400B500040007
:101BE000B1000400AD000400A9000400A50003003A
:101BF000A20003009F0004009B0003009800030064
:101C00009500020093000300900003008D00020085
:101C10008B0003008800020086000200840003009D
:101C2000810002007F0002007D0002007B000200B4
:101C300079000200770001007600020074000200C3
:101C400072000100710002006F0002006D000100CF
:101C50006C0002006A0001006900020067000100D8
:101C600066000100650001006400020062000100DE
:101C700061000100600001005F0002005D000100E2
:101C80005C0001005B0001005A00010059000100E6
:101C900058000100570001005600010055000100E6
:101CA00054000100530000005300010052000100E5
:101CB00051000100500001004F0001004E000000E3
:101CC0004E0001004D0001004C0001004B000000DF
:101CD0004B0001004A0001004900010048000000DB
:101CE00048000100470001004600000046000100D6
:101CF00045000000450001004400010043000000D1
:101D000043000100420000004200010041000000C9
:101D100041000100400001003F0000003F000100C1
:101D20003E0000003E0001003D0000003D000100BB
:101D30003C0000003C0000003C0001003B000000B3
:101D40003B0001003A0000003A00010039000000A9
:101D500039000100380000003800000038000100A0
:101D60003700000037000100360000003600000098
:101D7000360001003500000035000000350001008C
:101D80003400000034000000340001003300000083
:101D90003300000033000100320000003200000078
:101DA000320001003100000031000000310001006C
:101DB0003000000030000000300001002F00000063
:101DC0002F0000002F0000002F0001002E00000057
:101DD0002E0000002E0001002D0000002D0000004C
:101DE0002D0000002D0001002C0000002C00000040
:101DF0002C0000002C0001002B0000002B00000034
:101E00002B0000002B0001002A0000002A00000027
:101E10002A0000002A00010029000000290000001B
:101E2000290000002900000029000100280000000E
:101E30002800000028000000280000002800010001
:101E400027000000270000002700000027000000F6
:101E500027000100260000002600000026000000E8
:101E600026000000260001002500000025000000DB
:101E700025000000250000002500000025000100CD
:101E800024000000240000002400000024000000C2
:101E900024000100230000002300000023000000B4
:101EA00023000000230000002300000023000100A5
:101EB000220000002200000022000000220000009A
:101EC000220000002200010021000000210000008B
:101ED000210000002100000021000000210000007E
:101EE0002100010020000000200000002000000070
:101EF0002000000020000000200000002000000062
:101F0000200001001F0000001F0000001F00000053
:101F10001F0000001F0000001F0000001F00010044
:101F20001E0000001E0000001E0000001E00000039
:101F30004D383420582059205A204500466C6F7780
:101F400000466C6F770046616E2073706565642093
:101F5000330046616E20737065656420330046610E
:101F60006E20737065656420330046616E20737067
:101F700065656420320046616E207370656564207B
:101F8000320046616E2073706565642032004E6FCA
:101F90007A7A6C65004E6F7A7A6C6500537065656D
:101FA00064005370656564005370656564004D613D
:101FB000696E004D34323800507265686561742076
:101FC000504C4100436F6F6C646F776E00507265C8
:101FD00068656174204142530044697361626C65B5
:101FE000207374657070657273004D3834005365EA
:101FF0007420686F6D65206F666673657473004248
:102000006564204C6576656C696E67004732380AF6
:10201000473239004175746F20686F6D6500473233
:1020200038004D6F76652061786973004D61696E87
:10203000004D6F76652058004D6F76652059004D34
:102040006F7665205A004578747275646572004D2C
:102050006F766520302E316D6D004D6F76652031C5
:102060006D6D004D6F76652031306D6D004D6F7672
:1020700065206178697300457874727564657200D3
:102080004D6F7665205A004D6F76652059004D6F73
:1020900076652058004D3234004D323320257300D0
:1020A00057726974696E6720746F2066696C653A4F
:1020B00020006F70656E206661696C65642C204637
:1020C000696C653A20006F70656E206661696C65A9
:1020D000642C2046696C653A200046696C65207363
:1020E000656C65637465640A002053697A653A20FB
:1020F0000046696C65206F70656E65643A20006FFC
:1021000070656E206661696C65642C2046696C653B
:102110003A20002066696C653A2000646F696E673A
:10212000006672657368004E6F772000454E44204C
:10213000535542524F5554494E450A002220706F64
:1021400073002220706172656E743A22005355420A
:10215000524F5554494E452043414C4C20746172B6
:102160006765743A22004B494C4C45442E2000745C
:102170007279696E6720746F2063616C6C2073756F
:10218000622D67636F64652066696C65732077698B
:10219000746820746F6F206D616E79206C65766550
:1021A0006C732E204D4158206C6576656C206973E8
:1021B0003A004572726F723A0043616E6E6F74201E
:1021C0006F70656E20737562646972200065636864
:1021D0006F3A0020746F6F206C6F6E6720657874A3
:1021E000727573696F6E2070726576656E74656462
:1021F0000A0020636F6C6420657874727573696F70
:102200006E2070726576656E7465640A005265733F
:10221000656E643A20006F6B0020746F6F206C6FE6
:102220006E6720657874727573696F6E2070726561
:1022300076656E7465640A0020636F6C642065784F
:1022400074727573696F6E2070726576656E7465F1
:10225000640A00627573793A207061757365642051
:10226000666F7220696E7075740A00627573793AD0
:102270002070617573656420666F72207573657276
:102280000A00627573793A2070726F6365737369BF
:102290006E670A004B494C4C45442E20004B494C7C
:1022A0004C20636175736564206279204B494C4C06
:1022B00020627574746F6E2F70696E0A004B494C02
:1022C0004C45442E20004B494C4C2063617573658E
:1022D0006420627920746F6F206D75636820696E69
:1022E0006163746976652074696D65202D2063755E
:1022F0007272656E7420636F6D6D616E643A20005A
:10230000506C656173652072657365740050524945
:102310004E5445522048414C544544005072696E19
:102320007465722068616C7465642E206B696C6CD6
:1023300028292063616C6C6564210A004361726422
:102340002072656D6F766564004361726420696E0A
:1023500073657274656400206178697320647269C2
:102360007665722063757272656E743A20007472BD
:1023700075650066616C736500206178697320740F
:10238000656D7065726174757265207072657761D4
:10239000726E207472696767657265643A20002006
:1023A0007072657761726E20666C616720636C6520
:1023B000617265640A002064726976657220686FD4
:1023C0006D696E672073656E736974697669747977
:1023D0002073657420746F20002063757272656EBF
:1023E000742064656372656173656420746F200096
:1023F00020647269766572206F76657274656D709F
:1024000065726174757265207761726E696E67219D
:102410002028003A20004472697665722065727245
:102420006F720070012C0190012701B0012201C0E0
:10243000011D01F00118011002130130020E0160AC
:1024400002090190020401C002FF000003FA0040EB
:1024500003F5008003F000D003EB002004E60070D9
:1024600004E100E004DC004005D700C005D20040D4
:1024700006CD00D006C8008007C3003008BE00F0BB
:1024800008B900C009B400B00AAF00B00BAA00D070
:102490000CA500000EA000500F9B00C0109600502D
:1024A00012910000148C00C0158700B0178200B094
:1024B000197D00D01B7800001E730040206E009034
:1024C000226900F024640040275F0090295A00E050
:1024D0002B5500102E500020304B0010324600E0EB
:1024E00033410090353C001037370070383200A07F
:1024F000392D00B03A2800A03B2300603C1E00109C
:102500003D1900903D1400103E0F00703E0A00C0BF
:102510003E0500003F0000403FFBFF803FF6FFC04C
:102520003FF1FF6265640A002C2073797374656D56
:102530002073746F707065642120486561746572E2
:102540005F49443A200048656174696E672066619E
:10255000696C65640048656174696E6720666169CD
:102560006C6564004572723A204D494E54454D5099
:10257000004D494E54454D5020747269676765722D
:102580006564004572723A204D415854454D5000E3
:102590004D415854454D50207472696767657265A6
:1025A0006400202F0020403A0000000000010204D7
:1025B000040000001C1C0C040404020100000000C4
:1025C000000408100000000000001C1F11111F0073
:1025D000000006191803130C00040E1F041C000051
:1025E00000000E1315110E00001C1018170506052B
:1025F00000040A0A0A0A11110E0C12120C00000043
:1026000000001F1511151F000025753A2530327581
:1026100000253032753A2530327500257564202545
:102620003032753A25303275004C696E65204E7532
:102630006D626572206973206E6F74204C617374D3
:10264000204C696E65204E756D6265722B312C20B1
:102650004C617374204C696E653A20004B494C4CB8
:1026600045442E200053544F505045442E200050D6
:1026700072696E7465722073746F70706564206423
:10268000756520746F206572726F72732E204669B3
:102690007820746865206572726F7220616E6420A4
:1026A000757365204D39393920746F2072657374E4
:1026B0006172742E202854656D7065726174757234
:1026C000652069732072657365742E2053657420CC
:1026D00069742061667465722072657374617274C6
:1026E000696E67290A004E6F20436865636B7375D6
:1026F0006D2077697468206C696E65206E756D62F7
:1027000065722C204C617374204C696E653A200010
:10271000636865636B73756D206D69736D61746358
:10272000682C204C617374204C696E653A20004D12
:10273000313130004D3331005344207265616420E3
:102740006572726F720A00446F6E65207072696EF6
:1027500074696E672066696C650A002D2D2D005323
:1027600044005A00590058005072696E742070611C
:102770007573656400005072696E742061626F72D7
:10278000746564005072696E742066726F6D2053B8
:10279000440053746F70207072696E7400526573D8
:1027A000756D65207072696E74004E6F2053442001
:1027B00063617264005061757365207072696E7434
:1027C00000436F6E74726F6C005072657061726559
:1027D0000054756E6500496E666F2073637265659F
:1027E0006E005654726176206D696E0056547261A7
:1027F00076206D696E005654726176206D696E00A8
:10280000566D696E00566D696E00566D696E0056A4
:102810006D6178204500566D6178204500566D61E8
:1028200078204500566D6178205A00566D617820F9
:102830005A00566D6178205A00566D617820590013
:10284000566D6178205900566D6178205900566D9B
:102850006178205800566D6178205800566D617877
:102860002058004D6F74696F6E00416D617820458E
:1028700000416D6178204500416D6178205A00412A
:102880006D6178205A00416D6178205900416D6179
:1028900078205900416D6178205800416D617820A1
:1028A0005800412D74726176656C00412D7472611F
:1028B00076656C00412D7265747261637400412D00
:1028C0007265747261637400416363656C00416397
:1028D00063656C004D6F74696F6E0056652D6A6597
:1028E000726B0056652D6A65726B0056652D6A65C0
:1028F000726B00567A2D6A65726B00567A2D6A6586
:10290000726B0056792D6A65726B0056792D6A6577
:10291000726B0056792D6A65726B0056782D6A6568
:10292000726B0056782D6A65726B0056782D6A6559
:10293000726B004D6F74696F6E00544845524D4183
:102940004C2052554E4157415900546865726D6193
:102950006C2052756E6177617900656E7175657571
:1029600065696E67202200000020C00000A0C00042
:102970000000000000484200004842000080400083
:102980000000005761726E696E673A20486F6D698A
:102990006E672042756D702044697669736F72208E
:1029A0003C20310A00020204000000000000000088
:1029B0000000000000004843000048430000484376
:1029C000FFFFFF20496E76616C6964206578747240
:1029D0007564657220000000000000000000000027
:1029E000000000004843000048430000484342699B
:1029F0006C696E656172204C6576656C696E6720E6
:102A0000477269643A0A0020706F736974696F6E67
:102A1000206F7574206F662072616E67652E0A00E4
:102A20003F50726F62652000B6F3B1F611241FBEED
:102A3000CFEFD1E2DEBFCDBF00E00CBF14E0A0E0DD
:102A4000B2E0E4EFFBE002E00BBF02C007900D92A2
:102A5000A034B107D9F725E1A0E4B4E001C01D928C
:102A6000A535B207E1F715E1C5E1D5E100E006C003
:102A700021970109802FFE010F945E05C431D10713
:102A800080E00807A9F70E9468EB0D94E9050C9413
:102A900000002F923F924F925F926F927F928F929F
:102AA0009F92AF92BF92CF92DF92EF92FF920F93DD
:102AB0001F93CF93DF93CDB7DEB7C158D1090FB6BF
:102AC000F894DEBF0FBECDBF81E090E09093630F1E
:102AD0008093620F80914E158D3409F485C384353F
:102AE00011F40C94142C873411F00C94562C809112
:102AF0004C1590914D158B31910509F44CC2B4F4ED
:102B0000843091053CF482309105C4F597FF2FC0C5
:102B10000C94702C8430910509F4F7C14A9711F098
:102B20000C94702C0E9425330C94702C8A329105E1
:102B300009F456C35CF48D31910509F45CC20CF4C0
:102B400056C24E9709F45BC20C94702C8B359105DC
:102B500009F4C5C28C35910509F4C6C28A359105C0
:102B600011F00C94702C109245040C94702C8091F0
:102B70004C0281110C94772C0C94702C20914C02F7
:102B8000222311F40C94702C11E0029709F010E04C
:102B90000E940FE019821A821B821C821D821E82F3
:102BA0001F82188682E50E94C731882309F45EC11E
:102BB0000E9461316B017C012091E2063091E306B5
:102BC0004091E4065091E50621962CAF3DAF4EAF03
:102BD0005FAF21978090E6069090E706A090E80608
:102BE000B090E9068091060790910707A091080729
:102BF000B091090725968CAF9DAFAEAFBFAF2597BB
:102C000020910A0730910B0740910C0750910D0756
:102C100029962CAF3DAF4EAF5FAF299720E030E053
:102C2000A901C701B6010E9436FE882309F434C108
:102C300021962CAD3DAD4EAD5FAD219725966CAD87
:102C40007DAD8EAD9FAD25970E9436FE81110DC0E2
:102C5000A501940129966CAD7DAD8EAD9FAD2997F0
:102C60000E9436FE882309F417C120E030E0A90154
:102C7000C701B6010E9436FE881F8827881F1813D7
:102C80000BC080E090E0A0E8BFE369968CAF9DAFF9
:102C9000AEAFBFAF69970AC020E030E040E85FEB1D
:102CA00069962CAF3DAF4EAF5FAF699721962CADC3
:102CB0003DAD4EAD5FAD219725966CAD7DAD8EAD32
:102CC0009FAD25970F946E0261966CAF7DAF8EAF6E
:102CD0009FAF6197A501940129966CAD7DAD8EAD36
:102CE0009FAD29970F946E0265966CAF7DAF8EAF46
:102CF0009FAF659761962CAD3DAD4EAD5FAD6197D1
:102D0000CA01B9010E949BFE2B013C0165962CADC6
:102D10003DAD4EAD5FAD6597CA01B9010E949BFE06
:102D20009B01AC01C301B2010F946F020F94DA044E
:102D30002D966CAF7DAF8EAF9FAF2D9720E030E02A
:102D400040E05FE30E949BFE2B013C01A70196013E
:102D5000C701B6010E949BFE6B017C01A301920199
:102D6000C301B2010E949BFE9B01AC01C701B601E9
:102D70000F946E020F94DA049B01AC0169966CAD5E
:102D80007DAD8EAD9FAD69970E949BFE6B017C016E
:102D900025962CAD3DAD4EAD5FAD259721966CAD22
:102DA0007DAD8EAD9FAD21970F946F0220E030E096
:102DB00040E05FE30E949BFE2B013C0165966CADF9
:102DC0007DAD8EAD9FAD659790582D962CAD3DADE8
:102DD0004EAD5FAD2D970F944B039B01AC01C70126
:102DE000B6010E949BFE9B01AC01C301B2010F948E
:102DF0006F0221962CAD3DAD4EAD5FAD21970F9486
:102E00006E0269837A838B839C8329962CAD3DADBA
:102E10004EAD5FAD2997C501B4010F946F0220E05C
:102E200030E040E05FE30E949BFE2B013C012D96C9
:102E30002CAD3DAD4EAD5FAD2D9761966CAD7DADCA
:102E40008EAD9FAD61970F944B039B01AC01C70101
:102E5000B6010E949BFE9B01AC01C301B2010F941D
:102E60006F02A50194010F946E0212C089E40E94C2
:102E7000C731882331F00E94613169837A838B8363
:102E80009C838AE40E94C731882331F00E9461311B
:102E90006D837E838F83988720E030E0A90169816C
:102EA0007A818B819C810E9436FE81110BC020E0CB
:102EB00030E0A9016D817E818F8198850E9436FE68
:102EC000882349F0612FCE0101960E946C6F0E9409
:102ED000F9C90C94702CE2EBF1E284918F010F5F41
:102EE0001F4F882321F00E9404CAF801F6CFE9EDB4
:102EF000F1E084918F010F5F1F4F882311F40C9430
:102F0000702C0E9404CAF801F4CF80E50E94C731FA
:102F1000882329F00E943CC96B017C0103C0C12CAD
:102F2000D12C760183E50E94C731882361F00E948D
:102F3000613120E030E04AE754E40E949BFE0F94A8
:102F4000B8036B017C010E94CA88809152028111F2
:102F500005C060E08FEE91E00E94BEBC0E94F9C9FE
:102F600080916B0F90916C0FA0916D0FB0916E0FCF
:102F7000C80ED91EEA1EFB1E0E94D075DC01CB01D3
:102F80008C199D09AE09BF09B7FD02C00C94702CC5
:102F90000E9421AFF1CF0E94CB6981110C94702C5B
:102FA00080E090E0A0E4B0E489839A83AB83BC83A3
:102FB0008D839E83AF83B88780E090E0A0EAB1E480
:102FC00089879A87AB87BC8780E50E94C7318823B1
:102FD00019F00E94313101C060E068A3BE016F5F4B
:102FE0007F4FCE0180960E94F5E60C94702C0E94D3
:102FF000E36E0C94702C0E94335F0C94702CC09084
:10300000E206D090E306E090E406F090E50688E55D
:103010000E94C731811109C020E030E040EF51E447
:10302000C701B6010F946F0202C00E94613168A30C
:1030300079A38AA39BA3C090E606D090E706E09010
:10304000E806F090E90689E50E94C731811109C0C0
:1030500020E030E048E452E4C701B6010F946F026B
:1030600002C00E9461316B017C0169837A838B838A
:103070009C8388A099A0AAA0BBA024EF3DEF4FEEAF
:1030800051E4C501B4010F94950487FF02C00C946C
:10309000702C22E430E048E453E4C501B4010E94FE
:1030A00036FE181614F40C94702C2AEF3EEF47E409
:1030B00052E4C701B6010F94950487FF02C00C9437
:1030C000702C22E430E048E453E4C701B6010E94CA
:1030D00036FE181614F40C94702C0C947C2C81E0A1
:1030E000809345040C94702C0E94CA8863E9262EB4
:1030F00062E0362E78E1C72E75E1D72EE12CF12C57
:1031000000E010E01DAED1018D911D010E94C7317C
:10311000882309F451C00E9461314B015C010330E6
:10312000110559F0F701EA54F94F208131814281AC
:1031300053810F946E024B015C01F701EE51F94F80
:103140002081318142815381C501B4010F946E0207
:103150002B013C012DEB37E346E855EB0F9495042A
:1031600087FD0AC02DEB37E346E855E3C301B20102
:103170000E9436FE181604F50330110559F48092AA
:10318000EE069092EF06A092F006B092F106B1E042
:10319000BDAF12C0A3019201F601608171818281ED
:1031A00093810F946F02D6016D937D938D939C93C1
:1031B0001397C8010E9428E40F5F1F4FB4E0CB0EA5
:1031C000D11CE4E0EE0EF11C0430110509F09BCF98
:1031D000FDADF1110E94EB670E94C05C0C94702C55
:1031E0000E94445E0C94702C80914C1590914D156A
:1031F0008537910509F4C5C70CF0BFC08C34910523
:1032000009F4EBC40CF056C08931910509F431C2C0
:1032100034F58431910509F4BCC194F481319105F0
:1032200009F4B3C144F4029710F00C94702C0E947E
:10323000A75D0C94702C429709F4C2C60C94702CB4
:103240008631910509F4EEC10CF4E8C1873191058E
:1032500009F4EEC1489709F401C20C94702C8F3127
:10326000910509F4AFC37CF48B31910509F415C2C3
:103270000CF405C28C31910509F44BC24E9709F448
:1032800052C20C94702C8A32910509F441C42CF47A
:10329000809709F44BC30C94702C8133910509F489
:1032A00077C48B34910511F00C94702C0E94746AD1
:1032B0000C94702C8A36910509F41BC6B4F584353C
:1032C000910509F47DC6E4F48135910509F455C6EC
:1032D0004CF48D34910511F00C94702C0E94A5D8FB
:1032E0000C94702C8235910509F466C683359105DE
:1032F00011F00C94702C81E0809344040C94702C99
:103300008C35910509F4AEC634F48535910509F480
:103310008EC60C94702C8836910509F462C48936E7
:10332000910509F484C50C94702C8F36910509F42D
:10333000C2C484F48C36910509F42EC50CF405C67C
:103340008D36910509F4B7C58E36910509F4A0C4F0
:103350000C94702C8137910509F426C50CF420C516
:103360008237910509F407C78337910511F00C9452
:10337000702C0E94795C0C94702C8E3221E09207A4
:1033800011F40C947F250CF075C08B3C910511F461
:103390000C943A22CCF58C38910509F431C5ACF483
:1033A0008737910509F435C70CF4F4C688379105C1
:1033B00009F497C78937910511F00C94702C10927D
:1033C0005612109255120C94702C8B39910509F4F9
:1033D0004BC534F48139910509F48AC70C94702CDB
:1033E000883C910509F4E5C7893C910511F00C94DE
:1033F000702CE5EDEE2EE0E1FE2E03E912E0F4E0A4
:10340000DF2ED00E0C9421228C3D910511F40C94EA
:103410003524B4F48D3C910511F40C94C42214F4B9
:103420000C9458228E3C910511F40C943123833D69
:10343000910511F00C94702CEDECF1E20C945623F4
:10344000823E910511F40C948D243CF48D3D910540
:1034500011F40C9444240C94702C8C3241E09407A9
:1034600011F40C94B8248D32914011F40C94E124A1
:103470000C94702C843FA1E09A0711F40C942E2B2D
:103480000CF042C08239E1E09E0711F40C943A2915
:10349000F4F4833621E0920711F40C94E92B3CF408
:1034A0008F32914011F40C94D3250C94702C8039F8
:1034B00051E0950711F40C9437298139914011F0AE
:1034C0000C94702C81E00E949CE30C94702C843A44
:1034D000B1E09B0711F40C943E294CF48A399140D9
:1034E00011F00C94702C0E94385C0C94702C853A6E
:1034F00021E0920711F40C94C1298C3A914011F407
:103500000C944B2A0C94702C8A3843E0940711F4E5
:103510000C94972BC4F4863FA1E09A0711F40C9405
:10352000342B14F40C94312B873FE1E09E0711F407
:103530000C94372B8335934011F00C94702CEDECE8
:10354000F1E20C94412B823923E0920711F40C94A0
:10355000E62B7CF48F3843E0940711F40C94D92BBC
:103560008039934011F00C94702C0E94FB5B0C94FA
:10357000702C803AA3E09A0709F417C2873E934063
:1035800011F40C94022C0C94702C0E949D5D0C94F0
:10359000702CE9E1F2E084918F010F5F1F4F8823C7
:1035A00021F00E9404CAF801F6CF10920B15109278
:1035B0000A1540E050E0BA0186EB92E10E946E41AC
:1035C0008BE1E6EBF2E1DE01159601900D928A9512
:1035D000E1F78091B4129091B5129C838B8380EFB8
:1035E00092E09A83898340E050E0BE016F5F7F4F95
:1035F0008CEC93E00E948E9ACE0101960E9481DFAE
:10360000EAE0F2E084918F010F5F1F4F882311F4ED
:103610000C94702C0E9404CAF801F4CF0E94086632
:103620000C94702C10928512109286120C94702CAF
:10363000E0914A15F0914B158081882329F0803262
:1036400009F410823196F8CF40E061E080914A158C
:1036500090914B150E94C59C0C94702C8091861201
:10366000882319F081E0809385120E94746A0C947B
:10367000702C109285120E94B46A0C94702C809168
:103680008612882311F40C94702C83E50E94C731B4
:1036900081110C94D02C0C94702C8091861288236C
:1036A00051F1EAE2F2E084918F010F5F1F4F88230E
:1036B00021F00E9404CAF801F6CF609101157091C3
:1036C000021580910315909104154AE00E94A0CC48
:1036D0008FE20E9404CA6091FD147091FE148091E3
:1036E000FF14909100154AE00E94A0CC8AE00E944D
:1036F00004CA0C94702CECE3F2E084918F010F5F0C
:103700001F4F882311F40C94702C0E9404CAF801F6
:10371000F4CF40E060E080914A1590914B150E94F3
:10372000C59C0C94702C80918612882311F40C9403
:10373000702C80E594E10E943C4180E594E10E9478
:10374000FADA1092841210928312E0904A15F090E7
:103750004B1580918612882311F40C94702C0E94D2
:10376000BA9CFE0131966F01CF010E94433F82EB6C
:1037700092E19093D2128093D112D7018C918F3223
:1037800009F060C06FE270E0C7010F94A6058C01DC
:103790000F5F1F4F09F45CC06FE270E0C8010F9427
:1037A000A6055C01009709F454C00817190708F032
:1037B00050C04C01801A910AA401B801CE01809634
:1037C0000F94CF05E0E2F0E0EC0FFD1FE80DF91DCE
:1037D00010828E01005E1F4FF80181918F018823B6
:1037E00019F00E9404CAF8CF8AE00E9404CA6091CE
:1037F000D1127091D2126115710511F06C5F7F4F7B
:1038000021E0AE01405E5F4FCE0105960E94514718
:10381000811112C0BE01605E7F4F83E792E00E947B
:103820009D908EE20E9404CA8AE00E9404CAC601EA
:103830000E9481DF0C94702CD092D212C092D112CF
:103840008501A6CF83ED92E19093D2128093D1129D
:1038500087016091D1127091D2126115710511F03A
:103860006C5F7F4F18A21BA222E0A801CE018096B8
:103870000E945147811102C0F12C14C0CE018096E4
:103880000E94FC998823C1F361E0CE0180960E94DA
:1038900003DB009789F325EEDC012C931BA20E9429
:1038A0004D3FF82ECE0180960E94E2C9FF2009F11B
:1038B000EDE4F2E084917F01BFEFEB1AFB0A88236D
:1038C00021F00E9404CAF701F5CFF80181918F0120
:1038D000882319F00E9404CAF8CF8AE00E9404CA23
:1038E00010920115109202151092031510920415F2
:1038F00018C0EBE5F2E084917F012FEFE21AF20AA3
:10390000882321F00E9404CAF701F5CFD8018D91D8
:103910008D01882319F00E9404CAF8CF8EE20E941C
:1039200004CAC6010E9481DF0C94702C809185121C
:1039300081110E94CA8880918612882311F40C9408
:10394000702C80E50E94C731882319F00E94523103
:1039500003C080E50E949831182F482F61E08091C4
:103960004A1590914B150E94C59C83E50E94C73172
:10397000882381F00E943131AB01BC0140930115D5
:1039800050930215609303157093041580E594E13C
:103990000E946E4180918612882319F081E0809305
:1039A000851211110C94702C60CE80914A15909163
:1039B0004B1521E02093841240E060E00E94C59CFA
:1039C0000C94702C0E94C6995CE3C52ED12CE12C7E
:1039D000F12CA70196010F941102762E672ECA01D1
:1039E000B901A70196010F9411026B017C01CA0174
:1039F000B90128E130E040E050E00F9411024B01A2
:103A00005C01C9016DE671E00F9437058E010F5F0F
:103A10001F4F6115710599F06F927F92DF92CF92DF
:103A20009F928F929F938F937F936F938FEA92E0F1
:103A30009F938F931F930F930E94CFFD12C0009707
:103A4000B1F06F927F92DF92CF929F928F929F936D
:103A50008F938FE992E09F938F931F930F930E9410
:103A6000CFFD0FB6F894DEBF0FBECDBF36C08114B8
:103A70009104A104B10479F06F927F92DF92CF920A
:103A80009F928F9283E992E09F938F931F930F935E
:103A90000E94CFFDE6CFC114D104E104F10469F026
:103AA0006F927F92DF92CF928BE892E09F938F93F9
:103AB0001F930F930E94CFFDD4CF6F927F9287E820
:103AC00092E09F938F931F930F930E94CFFD0F90CF
:103AD0000F900F900F900F900F9060E0C8010E9420
:103AE000DCBCEDECF1E284917F019FEFE91AF90A69
:103AF000882321F00E9404CAF701F5CFB80183ECB6
:103B000092E00E949D908AE00E9404CA0C94702C5E
:103B100083E50E94C731882311F40C94702C0E9415
:103B20004131E82E80E50E94C731882341F00E9490
:103B300031318B0177FF02C00C94702C02C00DE074
:103B400010E0902FE3E8F4E088E28E0F24919217C2
:103B500029F031968E13FACF0C94E02CE2EBF1E2CF
:103B600084918F010F5F1F4F882321F00E9404CAA8
:103B7000F801F6CFE0EDF2E084918F010F5F1F4F67
:103B8000882311F40C94702C0E9404CAF801F4CF1D
:103B9000F090400481E0F826F0924004EAEEF2E072
:103BA00084918F010F5F1F4F882321F00E9404CA68
:103BB000F801F6CFF11003C0E4EEF2E002C0EFED41
:103BC000F2E084918F010F5F1F4F882311F40C9452
:103BD000702C0E9404CAF801F4CF0E94B46A0C94BD
:103BE000702C88E690E00E9469E481110C94702C9E
:103BF0008091B20E83FF02C00C94702C83E50E946A
:103C0000C731882309F440C00E9461310F94B30387
:103C10007093D0046093CF0480E00E9411C50E948D
:103C2000613120E030E04AEA52E40E9436FE181684
:103C30003CF00E94A5D860E08CEF92E00E94BEBCF0
:103C40000E94613120918C1030918D1040918E1026
:103C500050918F100F9495041816B4F48DE493E0EE
:103C60009F938F938091E30F90E001969F938F93A2
:103C700085EF92E09F938F931F920E94B0690FB6D9
:103C8000F894DEBF0FBECDBF0E94B1F10C94702C32
:103C90008EE40E94C731882311F40C94702C0E948A
:103CA0003131609318077093190780931A07909326
:103CB0001B070C94702C83E50E949831882359F0DF
:103CC00083E50E94C731882319F00E94413101C069
:103CD00080E08093B20EEDECF1E284918F010F5FF2
:103CE0001F4F882321F00E9404CAF801F6CFECE1AF
:103CF000F3E084918F010F5F1F4F882321F00E9412
:103D000004CAF801F6CF8091B20E8823A1F14EE0EB
:103D1000C42E43E0D42EE12CF12C20E08091B20E91
:103D200090E00E2C02C0959587950A94E2F780FFEB
:103D300017C0BB24B394B20E222319F08CE20E9468
:103D400004CAF60125913491F901849189010F5F2C
:103D50001F4F882321F00E9404CA9801F5CF2B2D14
:103D6000FFEFEF1AFF0A32E0C30ED11C45E0E41664
:103D7000F104A1F60CC0E8E1F3E084918F010F5F3C
:103D80001F4F882321F00E9404CAF801F6CF8AE071
:103D90000E9404CA0C94702C109251020C94702C46
:103DA00083E293E00E94D2AE83E50E94C73188236C
:103DB00069F00E9441318D3320F4809345020C94C8
:103DC000702C8CE3809345020C94702CEDECF1E2A6
:103DD00084918F010F5F1F4F882321F00E9404CA36
:103DE000F801F6CF4091450250E060E070E08CE2CF
:103DF00093E00E942D908AE00E9404CA0C94702CDB
:103E00008091B20E83FF02C00C94702C83E50E9457
:103E1000C731882311F40C94702C0E9461310F94E7
:103E2000B3037093DF0F6093DE0F0C94702C89E660
:103E300090E00E9469E4811111C0E3E3F3E0849112
:103E40008F010F5F1F4F882321F00E9404CAF801E1
:103E5000F6CF0E94C4C48AE00E9404CA1092630F85
:103E60001092620F0C94603083E50E94C731882362
:103E700011F40C94702C0E944131182F8D3308F0EE
:103E80001CE31093680F0E94D0756B017C01212FF9
:103E900030E0A8EEB3E00F945F02C60ED71EE81E16
:103EA000F91EC092640FD092650FE092660FF092F7
:103EB000670F0C94702C8DE690E00E9469E48111EC
:103EC0000C94702C8091B20E83FF02C00C94702C65
:103ED00083E50E94C73126968FAF269781110C94F7
:103EE000FE2C82E50E94C73181110C94FE2C0C94AB
:103EF000702C80E50E94C731882341F00E94413137
:103F0000182F833010F00C94702C01C010E083E562
:103F10000E94C731882329F00E943131362F272F84
:103F200002C03FEF20E0E12FF0E0EE0FFF1FE7536C
:103F3000FB4F832F922F8F3F910519F010F08FEFD9
:103F400090E0918380830C94702C80E50E94C731AF
:103F5000882341F00E9431316330710510F00C94D8
:103F6000702C02C060E070E0660F771FFB01E75322
:103F7000FB4F118210820C94702C0E945CC50E9431
:103F8000CA880E94C9AE1092CA041092C904109245
:103F9000CC041092CB041092CE041092CD0468EEA3
:103FA00073E080E090E00E945A7B60E081E693E05D
:103FB0000E94BEBC0C94702C109244040C94702C83
:103FC00083E50E94C7318823A1F00E94613120E07F
:103FD00030E04AE754E40E949BFE0F94B8036093DC
:103FE00046027093470280934802909349020C94D2
:103FF000702C88E50E94983181110C94902E89E5EF
:104000000E94983181110C94902E8AE50E9498317B
:1040100081110C94902E85E40E94983181110C94AA
:10402000902E0E94CA880E94C9AE0C94702C83E521
:104030000E949831882311F40C94702C0E946131F5
:1040400020E030E04AE754E40E949BFE0F94B8035E
:1040500060936F0F7093700F8093710F9093720F36
:104060000C94702C13E9C12E12E0D12E02EFE02E39
:1040700006E0F02E10E0D6018D916D010E9498317E
:10408000882309F46DC0133009F063C00E946131C8
:104090004B015C0120E030E040EA51E40E9436FE32
:1040A00087FF4EC0A50194016091FE067091FF0646
:1040B00080910007909101070F944B032B013C0165
:1040C0009B01AC016091FD107091FE108091FF107A
:1040D000909100110E949BFE6093FD107093FE1062
:1040E0008093FF1090930011A30192016091D11071
:1040F0007091D2108091D3109091D4100E949BFEA9
:104100006093D1107093D2108093D3109093D410F9
:104110006091BF0E7091C00E8091C10E9091C20E41
:104120000E943AFEA30192010E949BFE0F94B803E5
:104130006093BF0E7093C00E8093C10E9093C20E19
:104140008092FE069092FF06A0920007B0920107AF
:1041500007C00E946131F70160837183828393837A
:104160001F5FF4E0EF0EF11C143009F084CF0E94C1
:10417000CEAC0C94702C0E94CA880E94C05C0C9437
:10418000702C60E080914A1590914B150E94DCBC28
:104190000C94702C85E40E94C731882319F00E948A
:1041A000523103C085E40E949831882361F0EDEC20
:1041B000F1E284918F010F5F1F4F882321F00E944D
:1041C00004CAF801F6CF81E40E94C731882319F0B0
:1041D0000E94523103C081E40E949831882361F02B
:1041E000E1E7F3E084918F010F5F1F4F882321F0F7
:1041F0000E9404CAF801F6CF00914A1510914B15A0
:10420000D8018D918D01882309F4C1CD0E9404CA83
:10421000F7CFEDE8F3E084918F010F5F1F4F882304
:1042200021F00E9404CAF801F6CFE5E8F3E084919A
:104230008F010F5F1F4F882321F00E9404CAF801ED
:10424000F6CF8091060181FD03C002E313E002C0B6
:1042500007E313E0F80181918F01882319F00E9490
:1042600004CAF8CF8AE00E9404CAEDE7F3E0849123
:104270008F010F5F1F4F882321F00E9404CAF801AD
:10428000F6CF8091030181FD03C002E313E002C079
:1042900007E313E0D8018D918D01882319F00E9466
:1042A00004CAF8CF8AE00E9404CAE5E7F3E08491EB
:1042B0008F010F5F1F4F882321F00E9404CAF8016D
:1042C000F6CF1E9B03C002E313E002C007E313E036
:1042D000F80181918F01882309F459CD0E9404CA05
:1042E000F7CF81E080935612809355120C94702C76
:1042F00083E50E94C731882319F00E94313102C042
:1043000060E070E08B01112702301105D4F0E2EB80
:10431000F1E284918F010F5F1F4F882321F00E94EB
:1043200004CAF801F6CFE7EAF3E084918F010F5F4A
:104330001F4F882311F40C94702C0E9404CAF801BA
:10434000F4CF88E40E94C7318823A9F00E9431315C
:104350006A3A71053CF06530F1E07F072CF064E0CB
:1043600071E002C06AEA70E0F801EE0FFF1FEF5241
:10437000FB4F7183608386E40E94C731882311F468
:104380000C94702C0E943131000F111FF801EB5278
:10439000FB4F718360836F3F710519F014F06FEF6D
:1043A00070E077FF02C060E070E0718360830C947E
:1043B000702C88EC90E00E9469E481110C94702CC0
:1043C00084E40E9498318823C1F10E94613111E098
:1043D00020E030E0A9010E9436FE811101C010E00A
:1043E00010935209112349F10E946131E091E30FCA
:1043F00024E0E29FF0011124E25BF64F60837183B9
:104400008283938320E030E0A90160914E0970918E
:104410004F0980915009909151090E9436FE8111F7
:104420000CC080E090E0A0EEBFE380934E09909333
:104430004F09A0935009B09351090E94509F0C94CA
:10444000702CD8018D918D010E949831882349F0FC
:104450000E9461310F94B803F701608371838283F6
:104460009383F4E0EF0EF11CD012EBCF0E94A1ABCE
:104470000C94702C65ECE62E60E1F62E03E912E058
:1044800074E0D72ED00ED8018D918D010E94983105
:10449000882339F00E946131F70160837183828340
:1044A0009383F4E0EF0EF11CD012EDCF0C94702C3E
:1044B00083E50E9498318823D9F00E946131AB01D5
:1044C000BC014093ED105093EE106093EF10709389
:1044D000F0104093E5105093E6106093E71070934E
:1044E000E81083E294E00E9467908AE00E9404CA88
:1044F00080E50E949831882399F00E946131AB01D8
:10450000BC014093ED105093EE106093EF10709348
:10451000F01086E094E00E9467908AE00E9404CA4E
:1045200082E50E949831882399F00E946131AB01A5
:10453000BC014093E9105093EA106093EB10709324
:10454000EC1087EE93E00E9467908AE00E9404CA14
:1045500084E50E949831882311F40C94702C0E94F9
:104560006131AB01BC014093E5105093E6106093BC
:10457000E7107093E81089EC93E00E9467908AE05E
:104580000E9404CA0C94702C83E50E949831882301
:1045900051F00E9461316093C1107093C2108093FA
:1045A000C3109093C41084E50E949831882351F081
:1045B0000E9461316093BD107093BE108093BF1054
:1045C0009093C01082E40E949831882351F00E9499
:1045D0003CC96093AE0E7093AF0E8093B00E909373
:1045E000B10E88E50E949831882351F00E94613114
:1045F0006093F1107093F2108093F3109093F41085
:1046000089E50E949831882351F00E9461316093BE
:10461000F5107093F6108093F7109093F8108AE5D8
:104620000E949831882351F00E9461316093F91003
:104630007093FA108093FB109093FC1085E40E9415
:104640009831882311F40C94702C0E94613160938E
:10465000FD107093FE108093FF10909300110C9446
:10466000702C43E9C42E42E0D42E57E0E52E55E0ED
:10467000F52E00E010E0D6018D916D010E94983179
:10468000882351F00E946131F70160837183828336
:104690009383C8010E9428E40F5F1F4FF4E0EF0EE0
:1046A000F11C0330110539F70C94EC1884918F013B
:1046B0000F5F1F4F882321F00E9404CAF801F6CF34
:1046C00083E50E949831882321F00E945231809323
:1046D0001F02E3E7F4E084918F010F5F1F4F8823EF
:1046E00021F00E9404CAF801F6CF80911F028111C7
:1046F00003C0EFE6F4E002C0EBE6F4E084918F0142
:104700000F5F1F4F882321F00E9404CAF801F6CFE3
:10471000E3E6F4E084918F010F5F1F4F882321F0BF
:104720000E9404CAF801F6CF2091B6063091B70670
:104730004091B8065091B9066091940E7091950E13
:104740008091960E9091970E0F946F02AB01BC0171
:1047500081E694E00E9467902091BA063091BB06F2
:104760004091BC065091BD066091980E7091990ED3
:1047700080919A0E90919B0E0F946F02AB01BC0139
:104780008EE594E00E9467902091BE063091BF06AE
:104790004091C0065091C10660919C0E70919D0E93
:1047A00080919E0E90919F0E0F946F02AB01BC0101
:1047B0008BE594E00E946790E3E5F4E084918F013B
:1047C0000F5F1F4F882321F00E9404CAF801F6CF23
:1047D0002091B6063091B7064091B8065091B906BF
:1047E00060912D0270912E0280912F0290913002E3
:1047F0000F946F02AB01BC0181E594E00E946790C9
:104800002091BA063091BB064091BC065091BD067E
:1048100060913102709132028091330290913402A2
:104820000F946F02AB01BC018EE494E00E9467908C
:104830002091BE063091BF064091C0065091C1063E
:104840006091350270913602809137029091380262
:104850000F946F02AB01BC018BE494E00E9467905F
:104860008AE00E9404CA0C94702C83E50E94C73130
:10487000882311F40C94702C0E9431317093210222
:10488000609320020C94702C8DED90E00E9469E4FE
:1048900081110C94702C83E50E94C731882311F498
:1048A0000C94702C0091E30F10E00E943131000F46
:1048B000111FF801E55DFD4F718360838091E30F67
:1048C00090E08C01000F111F000F111F9801295D4E
:1048D0003D4F7901880F991FFC01E55DFD4F608117
:1048E0007181072E000C880B990B0E943CFE2AE078
:1048F00037ED43E25CE30E949BFEF801E057F14F85
:1049000020813181428153810E949BFED7016D93AA
:104910007D938D939C931397E3C780E50E94983114
:10492000882309F4DDC70E9431316B017C0183E5E6
:104930000E94C731882321F00E9431318B0102C0CF
:104940000FEF1FEFC8010196039708F0C9C7D7FE04
:1049500001C0C6C79C2DE3E8F4E088E28E0F2491E5
:10496000921709F4BDC731968E13F9CF0C943830E5
:1049700083E50E94C731882319F00E94313102C0BB
:1049800064E071E079A368A380E50E94C7318823C1
:1049900039F00E9431316938B3E17B0730F402C04D
:1049A00068EE73E07A83698304C088E893E19A83B0
:1049B0008983BE01605E7F4FCE0101960E9464DA5A
:1049C0008FC785E40E94C731811110C080E50E9425
:1049D0009831882391F00E9461316093BC047093F8
:1049E000BD048093BE049093BF0407C00E94413170
:1049F000882361F3E2EBF1E271C089E40E9498310F
:104A0000882381F00E9461312CEA35EC47E25EE3B5
:104A10000E949BFE6093C4047093C5048093C604F7
:104A20009093C70484E40E949831882381F00E9407
:104A300061312CEA35EC47E25EE30F944B0360935F
:104A4000C0047093C1048093C2049093C304EDEC3E
:104A5000F1E284918F010F5F1F4F882321F00E94A4
:104A600004CAF801F6CF4091BC045091BD04609196
:104A7000BE047091BF0483EB94E00E9467902CEA1F
:104A800035EC47E25EE36091C4047091C504809107
:104A9000C6049091C7040F944B03AB01BC018FEA8D
:104AA00094E00E944A902CEA35EC47E25EE3609184
:104AB000C0047091C1048091C2049091C3040E940B
:104AC0009BFEAB01BC018BEA94E00E944A908AE015
:104AD0000E9404CA05C70E9404CAF80184918F018C
:104AE0000F5F1F4F8111F7CF08E513E0F8018191A7
:104AF0008F01882309F44BC90E9404CAF7CF83E5CC
:104B00000E949831182F882371F00E9461310F9410
:104B1000B30370933A026093390221E0672B09F0E6
:104B200020E02093AD0E80E50E949831882359F053
:104B30002091390230913A02232B11F00E94523118
:104B40008093AD0ECDC61111CBC6EDECF1E2849190
:104B50008F010F5F1F4F882321F00E9404CAF801C4
:104B6000F6CF8091AD0E811103C061E473E002C005
:104B700064E373E08CEC94E00E949D9060913902B4
:104B800070913A028BEB94E00E948490E7EBF4E0A2
:104B900084918F010F5F1F4F882309F4A1C60E94E3
:104BA00004CAF801F5CF85E40E94C731882321F0BB
:104BB0000E9431317B0102C0E12CF12C83E40E9480
:104BC000C731882331F00E943131AA966FAFAA977E
:104BD00004C025E0AA962FAFAA9785E50E94C731A9
:104BE000882319F00E94523103C085E50E94983154
:104BF000E6968FAFE697F7FC07C0812C912CB6E1C3
:104C0000AB2EB3E4BB2E06C0812C912CACE8AA2EAF
:104C1000A2E4BA2E83E50E94C731882321F00E94C6
:104C200061314B015C01E114F10411F41092E30FC6
:104C30000E94D0752B013C01E11003C009E613E08E
:104C40000BC00CE713E0D8018D918D01882309F486
:104C50009EC80E9404CAF7CFF80181918F01882372
:104C600019F00E9404CAF8CFC501B4010F94B30330
:104C7000072E000C880B990B0E943CFE26966FAF06
:104C800026972A967FAF2A972E968FAF2E976296F9
:104C90009FAF6297A3019201205E314B4F4F5F4F50
:104CA000C258DF4F288339834A835B83CE57D04075
:104CB0008AE00E9404CA0E945CC58FE78093E20FDD
:104CC00081E080935102E1964CAE5DAE6EAE7FAE58
:104CD000E197EA964CAE5DAE6EAE7FAEEA97AD96CA
:104CE0001FAEAD97EE961CAE1DAE1EAE1FAEEE977C
:104CF0006A961FAE6A9730E46B963FAF6B974CE1B4
:104D00006C964FAF6C9756E46D965FAF6D976E964D
:104D10001FAE6E976F961FAE6F97A0961FAEA097AF
:104D2000A1961FAEA197A9961CAE1DAE1EAE1FAEDA
:104D3000A997A5961CAE1DAE1EAE1FAEA597C12CA1
:104D4000D12C7601FFE78F2E912CA12CB12C8FE76F
:104D500090E0A0E0B0E025968CAF9DAFAEAFBFAFC6
:104D60002597E5961CAE1DAE1EAE1FAEE59791E0F1
:104D7000AC969FAFAC9767961FAE1EAE679710E0DC
:104D8000212C312C00E0AA96AFADAA970A2E000C78
:104D9000BB0BAB96BFAFAEAFAB97809151028823F0
:104DA00009F402C10E94D07521966CAF7DAF8EAF21
:104DB0009FAF21978091E00F882309F4D1C00E9412
:104DC00074C510918C1020908D1030908E10009131
:104DD0008F10212F322D432D502F6E966FAD6E9771
:104DE0006F967FAD6F97A0968FADA097A1969FAD60
:104DF000A1970E9436FE87FF0CC06E961FAF6E977C
:104E00006F962FAE6F97A0963FAEA097A1960FAF6B
:104E1000A197212F322D432D502F6A966FAD6A979F
:104E20006B967FAD6B976C968FAD6C976D969FADC3
:104E30006D970F949504181664F46A961FAF6A97DD
:104E40006B962FAE6B976C963FAE6C976D960FAFCF
:104E50006D97AC96BFADAC9726962FAD26972A9648
:104E60003FAD2A972E964FAD2E9762965FAD629713
:104E7000612F722D832D902FBB2309F455C00F9401
:104E8000950418160CF06CC021964CAD5DAD6EAD5E
:104E90007FAD21974419550966097709DB01CA01DD
:104EA00088589341A109B109B7FD5AC025968CAD28
:104EB0009DADAEADBFAD259788199909AA09BB096B
:104EC000B595A795979587958093E20FE5964CAF9A
:104ED0005DAF6EAF7FAFE5972696EFAD26976E96E6
:104EE000EFAF6E972A96FFAD2A976F96FFAF6F9739
:104EF0002E962FAD2E97A0962FAFA09762963FAD1E
:104F00006297A1963FAFA19721968CAD9DADAEADB6
:104F1000BFAD2197E1968CAF9DAFAEAFBFAFE1972C
:104F2000AC961FAEAC971CC00E9436FE87FF18C01F
:104F300021968CAD9DADAEADBFAD2197E1962CAD68
:104F40003DAD4EAD5FADE197821B930BA40BB50B4E
:104F5000AC01BD01485853416109710977FFFFC693
:104F600020E030E040EA51E426966FAD26972A967D
:104F70007FAD2A972E968FAD2E9762969FAD629742
:104F80000F946F029B01AC01612F722D832D902F26
:104F90000F94950418167CF4E7EDF5E084918F01E9
:104FA0000F5F1F4F811103C00E945CC599C40E940E
:104FB00004CAF801F3CF21968CAD9DADAEADBFAD67
:104FC0002197EA962CAD3DAD4EAD5FADEA97821BC1
:104FD000930BA40BB50BB7FDABC00E94C4C48AE011
:104FE0000E9404CA21968CAD9DADAEADBFAD219798
:104FF0008053984FAF4FBF4FEA968CAF9DAFAEAF87
:10500000BFAFEA97AD969FADAD9791116EC0EE968A
:105010002CAD3DAD4EAD5FADEE97612F722D832D62
:10502000902F0F94950418160CF046C020E030E045
:1050300040E551E426966FAD26972A967FAD2A97D4
:105040002E968FAD2E9762969FAD62970F946E024B
:105050009B01AC01A1E0AD96AFAFAD97612F722D72
:10506000832D902F0F94950418161CF0AD961FAE4B
:10507000AD9720E030E040E050E4612F722D832DA9
:10508000902F0F946F02EE966CAF7DAF8EAF9FAFF7
:10509000EE9721962CAD3DAD4EAD5FAD2197205ED4
:1050A000314B4F4F5F4FC258DF4F288339834A83BC
:1050B0005B83CE57D0403CC021968CAD9DADAEAD4C
:1050C000BFAD2197C258DF4F288139814A815B816A
:1050D000CE57D040821B930BA40BB50BB7FD28C055
:1050E00049EB55E068EC75E020C020E030E040EA94
:1050F00051E426966FAD26972A967FAD2A972E9675
:105100008FAD2E9762969FAD62970F946E029B01B2
:10511000AC01612F722D832D902F0E9436FE87FFE8
:1051200007C049E955E069EA75E080E00E9489C559
:1051300021968CAD9DADAEADBFAD2197880F991F67
:10514000AA1FBB1FE1962CAD3DAD4EAD5FADE19703
:10515000821B930BA40BB50B84199509A609B709FB
:1051600081389F44A241B10568F0EBE7F5E08491F6
:105170008F010F5F1F4F882309F416CF0E9404CAC6
:10518000F801F5CF67964EAD5FAD6797AB968EADE4
:105190009FADAB97841795070CF066C0EEE1F5E084
:1051A00084918F010F5F1F4F882321F00E9404CA52
:1051B000F801F6CFB701A60189E095E00E9467905B
:1051C0008AE00E9404CAA5964CAD5DAD6EAD7FAD80
:1051D000A59784EF94E00E9467908AE00E9404CA39
:1051E000A9964CAD5DAD6EAD7FADA9978FED94E006
:1051F0000E9467908AE00E9404CAE6969FADE697F7
:10520000992309F46DC3C092BC04D092BD04E0920E
:10521000BE04F092BF042CEA35EC47E25EE3A596AB
:105220006CAD7DAD8EAD9FADA5970E949BFE60934A
:10523000C4047093C5048093C6049093C7042CEAF9
:1052400035EC47E25EE3A9966CAD7DAD8EAD9FADCA
:10525000A9970F944B036093C0047093C10480938B
:10526000C2049093C3043CC30E94ECBC96CD0E9440
:10527000CA8836C380E00E949CE332C38091E20674
:105280009091E306A091E406B091E50689839A83A4
:10529000AB83BC838091E6069091E706A091E80677
:1052A000B091E9068D839E83AF83B8878091EA062B
:1052B0009091EB06A091EC06B091ED0689879A8754
:1052C000AB87BC8786E50E949831882341F08091A6
:1052D000FB049091FC04892B11F00E94D2F683E527
:1052E0000E949831882329F0DDD7182F0E94B7E15A
:1052F00001C010E0F0909010111103C0EDECF1E24C
:105300001AC0F110FBCFE2EBF1E284918F010F5F45
:105310001F4F882321F00E9404CAF801F6CFE9E567
:10532000F6E084918F010F5F1F4F882339F30E94AD
:1053300004CAF801F6CF84918F010F5F1F4F8823B5
:1053400021F00E9404CAF801F6CFF11003C069E40D
:1053500073E002C065E473E08BE496E00E949D90E8
:105360008AE00E9404CA4CE050E062EE76E0CE0192
:1053700001960F947205892B09F4B2C20E94C05C99
:10538000AFC289E40E94C731882319F06AD7162F6B
:1053900001C01FEF8AE4FBD7882319F062D7062FDC
:1053A00001C00FEF8AE5C4D7F82E811104C081E552
:1053B000BFD7D82E01C0D12C17FD02C007FF03C0F4
:1053C000E2EBF1E205C0F1101AC0D11018C0F8CF1D
:1053D00084918F010F5F1F4F882321F00E9404CA20
:1053E000F801F6CFE7E9F6E084918F010F5F1F4FD8
:1053F000882309F475C20E9404CAF801F5CF12305F
:1054000018F0E2EBF1E206C00230D8F716C00E94B5
:1054100004CAF80184918F010F5F1F4F8111F7CFEC
:10542000E8E7F6E084918F010F5F1F4F882309F4AE
:1054300057C20E9404CAF801F5CFE12E110FFF08F0
:10544000002E000C110B3DD7D701AA0FBB1FDD208A
:1054500071F0FD01E00FF11FEE0FFF1FEE0FFF1FB8
:10546000E951FB4F208131814281538103C020E00B
:1054700030E0A9010A0F1B1F000F111F000F111FA1
:1054800009511B4F0F946F02D8016D937D938D933B
:105490009C93139725C20E94CB69811121C227E6F4
:1054A000822E29E2922EE2EEF6E0FEAFEDAF9E01F3
:1054B0002F5F3F4F590100EC19E2190133E0300F23
:1054C00022963FAF2297F401659175918591949151
:1054D000ADADBEADCD90DD90ED90FD90BEAFADAF6A
:1054E000A70196010F946E022B013C0120E030E0F1
:1054F00040EA51EC0F94950487FD10C020E030E0A5
:1055000040EA51E4C301B2010E9436FE181634F09D
:10551000F10140825182628273820DC0F801849150
:105520001816B4F7F7FAF094F7F8F094F101C08286
:10553000D182E282F382D101CD90DD90ED90FD9099
:105540001D0120E030E040EA51ECC701B6010F94A4
:10555000950487FF03C0E2EBF1E20BC020E030E0EE
:1055600040EA51E4C701B6010E9436FE181674F5F0
:10557000F2CF84918F010F5F1F4F882321F00E948B
:1055800004CAF801F6CFE5EDF6E084918F010F5FD4
:105590001F4F882321F00E9404CAF801F6CF61E072
:1055A00087EC96E00E94BEBC0E94CED088E290E0DC
:1055B00099A388A388EC90E09CAF8BAFBE01605E9E
:1055C0007F4FCE01CB960E9464DA8AC1B4E08B0E85
:1055D000911C0F5F1F4F2296EFAD2297E01373CF00
:1055E00097E0E92E95E0F92E00E010E0F5018191B9
:1055F0009191A191B1915F01F70181939193A19351
:10560000B1937F01C8010E9428E40F5F1F4F033050
:10561000110561F70E94C05C60E087EB96E00E9494
:10562000BEBC83E992E09CAF8BAF04E610E019A307
:1056300008A3BE01655C7F4FCE0180960E9464DAAC
:105640008AEB92E09CAF8BAF19A308A3BE01655C07
:105650007F4FCE0180960E9464DA42C10E94D556E7
:105660003FC10E942E513CC10E949D8739C183E5F4
:105670005FD6882319F016D691E089270E941683F9
:105680002FC184918F010F5F1F4F882321F00E944B
:1056900004CAF801F6CFEFE0F7E084918F010F5FC5
:1056A0001F4F882321F00E9404CAF801F6CF8AE533
:1056B0003FD6882361F105D66B017C0120E030E004
:1056C00040EA51EC0F94950487FF03C0E6EFF6E043
:1056D00013C020E030E040EA51E4C701B6010E9467
:1056E00036FE18169CF3C092C206D092C306E09212
:1056F000C406F092C5060BC084918F010F5F1F4F47
:10570000882309F4EDC00E9404CAF801F5CF409146
:10571000C2065091C3066091C4067091C50683EF1E
:1057200096E00E9467908AE00E9404CAD9C083E98B
:10573000E82E82E0F82E8E010F5F1F4F6E01F9E018
:10574000CF0ED11CD7018D917D0121D6882311F078
:1057500088D502C060E070E0F801619371938F0119
:10576000EC15FD0579F769817A816115710521F0E4
:105770008DEA91E10E94F09867E972E08DEA91E18B
:105780000E9448C16B817C816115710559F08BE2E3
:1057900091E10E94F0986DE972E08BE291E10E9444
:1057A00048C19EC06DE972E08BE291E10E9448C160
:1057B00097C067E972E08DEA91E10E9418C16DE936
:1057C00072E08BE291E10E9418C18AC00E94D95B0D
:1057D00087C0E2EBF1E284918F010F5F1F4F8823B6
:1057E00021F00E9404CAF801F6CFEEE1F7E08491BF
:1057F0008F010F5F1F4F882309F472C00E9404CAF3
:10580000F801F5CF81E080934C021092C90683E540
:10581000BED5882311F046D502C083E589D5811114
:105820005FC00E9497B75CC0F0904C15FF2029F133
:10583000EDECF1E284918F010F5F1F4F882321F07F
:105840000E9404CAF801F6CF84E50E9404CA6F2DB5
:1058500070E080E090E04AE00E94A0CC80E20E94EC
:1058600004CA08E513E0D8018D918D01882311F455
:105870000C94C71E0E9404CAF6CF10924309EDECA7
:10588000F1E284918F010F5F1F4F882321F00E9466
:1058900004CAF801F6CF6091430970E08DE297E009
:1058A0000E9484908AE00E9404CA1AC0EDECF1E2E2
:1058B00084918F010F5F1F4F882321F00E9404CA3B
:1058C000F801F6CF6091690F70916A0F8FE397E04E
:1058D0000E949D9082E20E9404CA8AE00E9404CA4B
:1058E0001092630F1092620F0E9478B7E9C30E9472
:1058F0000FE00E9401B2F4CF80E00E94B7E10E9465
:1059000046E285E444D5882311F0CCD402C085E476
:105910000FD521E0482FBE016F5F7F4FCE018096EB
:105920000E94CE6A6B017C019B01AC010F941B05A8
:10593000811131C02CEA35EC47E257E368A179A127
:105940008AA19BA10F946F02AB01BC0182E092E09F
:105950000E944A902CEA35EC47E257E369817A814C
:105960008B819C810F946F02AB01BC018DEF91E0A4
:105970000E944A902CEA35EC47E257E3C701B60192
:105980000F946F02AB01BC0188EF91E00E944A9036
:105990008AE00E9404CA0E942CE20E94C05CA0CF50
:1059A00060D4AB01BC014093011550930215609384
:1059B00003157093041580E594E10E946E4190CF29
:1059C00061E0802F0E9495746E2D802F0E94537489
:1059D000F12CB701802F0E94D1740330110529F4F6
:1059E000F092CC04E092CB047BCF0430110509F097
:1059F00077CFF092CE04E092CD0472CF62D40F94B0
:105A0000B3037093D0046093CF0480E00E9411C56B
:105A100058D420E030E04AEA52E40E9436FE1816DC
:105A200044F00E94A5D860E08FE493E00E94BEBCE1
:105A300002C00E94746A6091CF047091D004072E56
:105A4000000C880B990B0E943CFE20918C10309129
:105A50008D1040918E1050918F100F949504181650
:105A6000B4F48DE493E09F938F938091E30F90E0E3
:105A700001969F938F9388E493E09F938F931F9257
:105A80000E94B0690FB6F894DEBF0FBECDBF0E9472
:105A9000B1F181E08093510225961CAE1DAE1EAE81
:105AA0001FAE25972D961CAE1DAE1EAE1FAE2D97B8
:105AB0001DAE2E961FAE2E979CE362969FAF629707
:105AC000ACE16696AFAF6697B6E46A96BFAF6A97E9
:105AD000C12CD12C20E8E22E3FEBF32E812C912C0F
